:020000040000FA
:100000000128003090000930860000308800870108
:100010000830890081309D001D309F00C201C4015D
:10002000C50112288710071185191428C4017720EB
:10003000C40A851923284408073C03181728C5015A
:100040008710071112284408023C031C2828122894
:100050000130C500871477208710C2012F28851D25
:10006000612871204308573C03183B2843085D3C36
:1000700003183F28502807158710C2016F2807155D
:100080004208031D472887140130C2006F288710DB
:100090004208643C03184E28C2016F28C20A6F2828
:1000A00007154208031D582887140130C2006F2825
:1000B00087104208113C03185F28C2016F28C20A4A
:1000C0006F28C4017720C40A85196E284408073CAC
:1000D00003186228C5018710071112282F287720DE
:1000E0002F289F149F1872281E08C3000800043090
:1000F000C0000430C100C00B7B28C10B7B2800006E
:020100000800F5
:040102000034003491
:02400E00A63AD0
:00000001FF
